:020000040000FA
:0600000029EF2DF01200B3
:0610000029EF2DF01200A3
:06100800BDEF13F0120021
:021018001200C4
:06102A000100C45A0000A1
:08103000AE00000039000000D1
:08103800D9CFE6FFE1CFD9FF9B
:10104000D08EF28EFD0EDBCF1EF0FE0EDBCF1FF03A
:10105000200E1E1802E19D0E1F1847E0400E1E18BC
:1010600002E19D0E1F183FE0100E1E1802E1F00E67
:101070001F1836E0080E1E1802E1F00E1F182DE0B2
:10108000100E1E1802E1F20E1F1824E0020E1E18A8
:1010900002E1A00E1F181BE0020E1E1802E19D0EB9
:1010A0001F1812E0010E1E1802E19D0E1F1809E024
:1010B000200E1E181CE1F20E1F1819E1F28AD58EBF
:1010C00016D09D80CD8013D09D82CA8410D0A0827E
:1010D000B1800DD0F288F19C0AD0F086F19A07D049
:1010E000F088F19804D09D8C02D09D8A9F8AE552A9
:1010F000E7CFD9FF1200B0C092FF1200B0C093FF3B
:101100001200B0C094FF120092681200936812009F
:1011100094681200D180120004001200D9CFE6FFBB
:10112000E1CFD9FFFD0EDBCF1EF0FE0EDBCF1FF0AF
:10113000820E1E1802E10F0E1F1801E1C3D0170E18
:101140001E1802E17C0E1F1801E1B9D0160E1E1800
:1011500002E17C0E1F1801E1AFD0120E1E1802E151
:101160007C0E1F1801E1A5D0110E1E1802E17C0EA5
:101170001F1801E19BD0100E1E1802E17C0E1F18F3
:1011800001E191D0810E1E1802E10F0E1F1801E13E
:1011900087D00F0E1E1802E17C0E1F1801E17DD0D2
:1011A0000E0E1E1802E17C0E1F1874E00D0E1E18A4
:1011B00002E17C0E1F186BE00C0E1E1802E17C0E83
:1011C0001F1862E00B0E1E1802E17C0E1F1859E07A
:1011D0000A0E1E1802E17C0E1F1850E0090E1E18A0
:1011E00002E17C0E1F1847E0080E1E1802E17C0E7B
:1011F0001F183EE0800E1E1802E10F0E1F1835E08A
:10120000050E1E1802E17C0E1F182CE0040E1E189D
:1012100002E17C0E1F1823E0030E1E1802E17C0E73
:101220001F181AE0020E1E1802E17C0E1F1811E0B2
:10123000010E1E1802E17C0E1F1808E01E5044E14A
:101240007C0E1F1841E1929080803ED09292808265
:101250003BD09294808438D09296808635D09298F4
:10126000808832D0929A808A2FD0926A89682CD056
:101270009390818029D09392818226D09394818407
:1012800023D09396818620D0939881881DD0939AFD
:10129000818A1AD0939C818C17D0939E818E14D012
:1012A000936A8A6811D0949082800ED09492828240
:1012B0000BD09494828408D0949C828C05D0949E08
:1012C000828E02D0946A8B68E552E7CFD9FF120074
:1012D000D9CFE6FFE1CFD9FFFD0EDBCF1EF0FE0E2A
:1012E000DBCF1FF0820E1E1802E10F0E1F1801E166
:1012F000C3D0170E1E1802E17C0E1F1801E1B9D0F1
:10130000160E1E1802E17C0E1F1801E1AFD0120E5E
:101310001E1802E17C0E1F1801E1A5D0110E1E1847
:1013200002E17C0E1F1801E19BD0100E1E1802E195
:101330007C0E1F1801E191D0810E1E1802E10F0EE4
:101340001F1801E187D00F0E1E1802E17C0E1F1836
:1013500001E17DD00E0E1E1802E17C0E1F1874E014
:101360000D0E1E1802E17C0E1F186BE00C0E1E18ED
:1013700002E17C0E1F1862E00B0E1E1802E17C0ECB
:101380001F1859E00A0E1E1802E17C0E1F1850E0CB
:10139000090E1E1802E17C0E1F1847E0080E1E18E9
:1013A00002E17C0E1F183EE0800E1E1802E10F0EB7
:1013B0001F1835E0050E1E1802E17C0E1F182CE0E8
:1013C000040E1E1802E17C0E1F1823E0030E1E18E7
:1013D00002E17C0E1F181AE0020E1E1802E17C0EBC
:1013E0001F1811E0010E1E1802E17C0E1F1808E004
:1013F0001E5044E17C0E1F1841E1929080903ED037
:10140000929280923BD09294809438D0929680961B
:1014100035D09298809832D0929A809A2FD0926A42
:10142000896A2CD09390819029D09392819226D072
:101430009394819423D09396819620D09398819809
:101440001DD0939A819A1AD0939C819C17D0939E19
:10145000819E14D0936A8A6A11D0949082900ED0A3
:10146000949282920BD09494829408D0949C829C03
:1014700005D0949E829E02D0946A8B6AE552E7CF93
:10148000D9FF1200D9CFE6FFE1CFD9FFFD0EDBCFA8
:101490001EF0FE0EDBCF1FF01F0E1E1802E17C0EA9
:1014A0001F1801E1AFD0170E1E1802E17C0E1F18A5
:1014B00001E1A5D0160E1E1802E17C0E1F1801E1F5
:1014C0009BD0120E1E1802E17C0E1F1801E191D074
:1014D000110E1E1802E17C0E1F1801E187D0100EBC
:1014E0001E1802E17C0E1F1801E17DD00F0E1E18A0
:1014F00002E17C0E1F1874E00E0E1E1802E17C0E35
:101500001F186BE00D0E1E1802E17C0E1F1862E022
:101510000C0E1E1802E17C0E1F1859E00B0E1E184F
:1015200002E17C0E1F1850E00A0E1E1802E17C0E2C
:101530001F1847E0090E1E1802E17C0E1F183EE03E
:10154000080E1E1802E17C0E1F1835E0050E1E184D
:1015500002E17C0E1F182CE0040E1E1802E17C0E26
:101560001F1823E0030E1E1802E17C0E1F181AE05C
:10157000020E1E1802E17C0E1F1811E0010E1E184B
:1015800002E17C0E1F1808E01E503EE17C0E1F1881
:101590003BE19290807038D09292807235D09294D4
:1015A000807432D0929680762FD0929880782CD00A
:1015B000929A807A29D09390817026D093928172EA
:1015C00023D09394817420D0939681761DD09398E4
:1015D00081781AD0939A817A17D0939C817C14D009
:1015E000939E817E11D0949082700ED094928272DC
:1015F0000BD09494827408D0949C827C05D0949EE5
:10160000827E02D0959E837EE552E7CFD9FF1200FD
:10161000D9CFE6FFE1CFD9FFFD0EDBCF1EF0FE0EE6
:10162000DBCF1FF0170E1E1802E17C0E1F1801E120
:1016300019D1160E1E1802E17C0E1F1801E109D106
:10164000120E1E1802E17C0E1F1801E1F9D0110ED6
:101650001E1802E17C0E1F1801E1E9D0100E1E18C1
:1016600002E17C0E1F1801E1D9D00F0E1E1802E115
:101670007C0E1F1801E1C9D00E0E1E1802E17C0E6F
:101680001F1801E1B9D00D0E1E1802E17C0E1F18C3
:1016900001E1A9D00C0E1E1802E17C0E1F1801E119
:1016A00099D00B0E1E1802E17C0E1F1801E189D0A3
:1016B0000A0E1E1802E17C0E1F1801E179D0090EF6
:1016C0001E1802E17C0E1F186AE0080E1E1802E1C7
:1016D0007C0E1F185BE0050E1E1802E17C0E1F1821
:1016E0004CE0040E1E1802E17C0E1F183DE0030EB4
:1016F0001E1802E17C0E1F182EE0020E1E1802E1D9
:101700007C0E1F181FE0010E1E1802E17C0E1F1830
:1017100010E01E5001E0ADD07C0E1F1801E0A9D0F2
:101720009290FB0EDB50E8B08080E8B0A2D08090B1
:10173000A0D09292FB0EDB50E8B08082E8B099D046
:10174000809297D09294FB0EDB50E8B08084E8B092
:1017500090D080948ED09296FB0EDB50E8B08086BD
:10176000E8B087D0809685D09298FB0EDB50E8B029
:101770008088E8B07ED080987CD0929AFB0EDB50B7
:10178000E8B0808AE8B075D0809A73D09390FB0E51
:10179000DB50E8B08180E8B06CD081906AD0939241
:1017A000FB0EDB50E8B08182E8B063D0819261D05B
:1017B0009394FB0EDB50E8B08184E8B05AD081945A
:1017C00058D09396FB0EDB50E8B08186E8B051D03C
:1017D00081964FD09398FB0EDB50E8B08188E8B03B
:1017E00048D0819846D0939AFB0EDB50E8B0818AAE
:1017F000E8B03FD0819A3DD0939CFB0EDB50E8B01F
:10180000818CE8B036D0819C34D0939EFB0EDB50A7
:10181000E8B0818EE8B02DD0819E2BD09490FB0E45
:10182000DB50E8B08280E8B024D0829022D094923D
:10183000FB0EDB50E8B08282E8B01BD0829219D058
:101840009494FB0EDB50E8B08284E8B012D082940E
:1018500010D0949CFB0EDB50E8B0828CE8B009D02D
:10186000829C07D0949EFB0EDB50E8B0828EE8A0ED
:10187000829EE552E7CFD9FF1200D9CFE6FFE1CF34
:10188000D9FF020EE126DE6ADD6ADECF00F0DDCF91
:1018900001F00C0E1E6E1F6AFD0EDBCF23F0FE0E54
:1018A000DBCF24F020EC29F01CC002F01DC003F0B7
:1018B0000250005C0350015806E20000DF2A010ECE
:1018C00001E3DB2AE2D7020EE15C02E2E16AE552C3
:1018D000E16EE552E7CFD9FF1200D9CFE6FFE1CFA5
:1018E000D9FF020EE126FC0E0001B025010FA96E02
:1018F000B051A9240B0BA66EA850FEE1DE6ADD6A8A
:10190000DECF00F0DDCF01F00C0E1E6E1F6AFD0E63
:10191000DBCF23F0FE0EDBCF24F020EC29F01CC03F
:1019200002F01DC003F01C50005C1D5001580AE27B
:10193000010EE66E09EC2DF0E552DF2A010EE0E320
:10194000DB2ADED7020EE15C02E2E16AE552E16EDB
:10195000E552E7CFD9FF1200D9CFE6FFE1CFD9FF9B
:10196000FE0EDB500001B025C16E070EB025C06E23
:10197000E552E7CFD9FF1200D9CFE6FFE1CFD9FF7B
:10198000FE0EDB500C0A24E0070A20E0010A1CE0EE
:10199000030A18E0010A14E00C0A10E0070A0CE040
:1019A000010A08E0030A04E0010A14E1010E11D063
:1019B000050E0FD0090E0DD00D0E0BD0110E09D053
:1019C000210E07D0250E05D0290E03D02D0E01D0F3
:1019D000310EC26E0A0EE66EE66A7FDFE552E55210
:1019E000C09EC282C2B2FED7C450016AF36E01C06B
:1019F000F4FFE552E7CFD9FF1200D9CFE6FFE1CFE0
:101A0000D9FFFE0EDB500C0A24E0070A20E0010A91
:101A10001CE0030A18E0010A14E00C0A10E0070AAF
:101A20000CE0010A08E0030A04E0010A14E1010ED7
:101A300011D0050E0FD0090E0DD00D0E0BD0110ECA
:101A400009D0210E07D0250E05D0290E03D02D0E6A
:101A500001D0310EC26E0A0EE66EE66A3EDFE55236
:101A6000E552C08EC282C2B2FED7C3CFF3FFC4CF4D
:101A7000F4FFE552E7CFD9FF1200D9CFE6FFE1CF5F
:101A8000D9FFFE0EDB50030A67E0020A42E0010ABA
:101A900001E084D0FC0EDBCF1EF0FD0EDBCF1FF08B
:101AA000020E1E1801E11F5031E0040E1E1801E164
:101AB0001F502AE0080E1E1801E11F5023E0100EEF
:101AC0001E1801E11F501CE0200E1E1801E11F50DE
:101AD00015E0400E1E1801E11F500EE0800E1E188A
:101AE00001E11F5007E01E5059E1010E1F1856E199
:101AF000870E0DD0860E0BD0850E09D0840E07D030
:101B0000830E05D0820E03D0810E01D0800ED56EDB
:101B100045D0FC0EDBCF1EF0FD0EDBCF1FF0010E1B
:101B20001E1801E11F5015E0020E1E1801E11F50A2
:101B30000EE0040E1E1801E11F5007E0080E1E18EB
:101B40002DE11F502BE1B10E05D0A10E03D0910E57
:101B500001D0810ECD6E22D0FC0EDBCF1EF0FD0E2B
:101B6000DBCF1FF0010E1E1801E11F5015E0020E21
:101B70001E1801E11F500EE0040E1E1801E11F5057
:101B800007E0080E1E180AE11F5008E1B10E05D04B
:101B9000A10E03D0910E01D0810EB16EE552E7CFB8
:101BA000D9FF1200D9CFE6FFE1CFD9FF060EE1261B
:101BB000036A046A010E056EFC0EDBCF06F0FD0E13
:101BC000DBCF07F0086A0650035C006E075004582C
:101BD000016E08500558026E00C0DEFF01C0DDFF37
:101BE000006A010E016E00C023F0246EDECF1EF0ED
:101BF000DDCF1FF0E1EC2CF0020E1EC0DBFF030E68
:101C00001FC0DBFFDECF00F0DDCF01F0016A040E64
:101C100000C0DBFF050E01C0DBFFFE0EDB50030A38
:101C200012E0020A09E0010A14E1020EDB50D76E4D
:101C3000040EDB50D66E0DD0020EDB50CF6E040EBC
:101C4000DB50CE6E06D0020EDB50B36E040EDB50BE
:101C5000B26E060EE15C02E2E16AE552E16EE55227
:101C6000E7CFD9FF1200D9CFE6FFE1CFD9FFA69E7B
:101C7000A69CA684FE0EDB50A96EFD0EDB50A86E5E
:101C8000550EA76EAA0EA76EA682A6B2FED7E55283
:101C9000E7CFD9FF1200D9CFE6FFE1CFD9FFFE0E83
:101CA000DB50A96EA694A69EA69CA680A850E552DD
:101CB000E7CFD9FF1200FD0EA96E0B0EA914A66E78
:101CC000A850FEE17E0E026E246EA9CF1FF045ECF7
:101CD0002DF01B38F00B006E016AAEC01EF0AFC0D5
:101CE0001FF0236E01C024F0E1EC2CF01EC0B1F017
:101CF0001EC0E6FFD0DFE5520001B06F1200D9CF61
:101D0000E6FFE1CFD9FF040EE126948E949C240EC9
:101D1000AC6E900EAB6E080EB86EB0C004F0056AE3
:101D2000066A076A086A1B0E096EB70E0A6E0B6A0E
:101D300008C01CF009C01DF01E6E0BC01FF0FB0E8A
:101D4000DBCF21F0FC0EDBCF22F0FD0EDBCF23F04A
:101D5000FE0EDBCF24F09EEC2CF004501C24006E11
:101D600005501D20016E06501E20026E07501F20D8
:101D7000036E0006000E015A025A035A00C0DFFF2C
:101D8000010E01C0DBFF020E02C0DBFF030E03C029
:101D9000DBFFD9CFE9FFDACFEAFFEECF00F0EECFDD
:101DA00001F0EECF02F0EFCF03F0080ED89003322F
:101DB000023201320032E806F9E10050B06E000E46
:101DC000DB50AF6E040EE15C02E2E16AE552E16EC7
:101DD000E552E7CFD9FF1200D9CFE6FFE1CFD9FF17
:101DE000ACA2FED7FE0EDB500001B025AD6EE55271
:101DF000E7CFD9FF1200D9CFE6FFE1CFD9FFACA2E0
:101E0000FED7FE0EDB500001B025AD6EE552E7CFE8
:101E1000D9FF1200D9CFE6FFE1CFD9FFACA2FED7A0
:101E2000B850080B01E0010E006EFE0EDB5000C042
:101E3000E7FFE75204E0E8427F0BE706FCE1000120
:101E4000B025AD6EE552E7CFD9FF1200D9CFE6FF3E
:101E5000E1CFD9FFE65260C0F6FF61C0F7FF08008E
:101E6000F55010E0000160C0F6FF61C0F7FF602B85
:101E7000000E61230800F550DF6EDFCFE6FFBBDF09
:101E8000E552E9D7E552E552E7CFD9FF1200D9CFA5
:101E9000E6FFE1CFD9FFE65262C0F6FF63C0F7FF6D
:101EA0000800F55010E0000162C0F6FF63C0F7FFC4
:101EB000622B000E63230800F550DF6EDFCFE6FFD4
:101EC000A9DFE552E9D7E552E552E7CFD9FF120085
:101ED000D9CFE6FFE1CFD9FF0001B26BB251E76E77
:101EE000FD0EDBCFE9FFFE0EDBCFEAFFE750E92670
:101EF000000EEA22EF5013E0B251E76EFD0EDBCF89
:101F0000E9FFFE0EDBCFEAFFE750E926000EEA22EA
:101F1000EF50E66E70DFE5520001B22BDFD7E552DD
:101F2000E7CFD9FF1200D9CFE6FFE1CFD9FF0001FB
:101F3000B26BB251E76EFD0EDBCFE9FFFE0EDBCFD9
:101F4000EAFFE750E926000EEA22EF5013E0B25113
:101F5000E76EFD0EDBCFE9FFFE0EDBCFEAFFE750B9
:101F6000E926000EEA22EF50E66E54DFE55200014A
:101F7000B22BDFD7E552E7CFD9FF1200D9CFE6FF6A
:101F8000E1CFD9FFE150FD0FE96EFF0EDA20EA6ED6
:101F90000F0ED880EE54270EED542AE2FD0EDBCF53
:101FA00002F0FE0EDBCF03F0100E236E270E246E20
:101FB00002C01EF003C01FF0E1EC2CF01EC002F0C6
:101FC0001FC003F00A0E236E246AE1EC2CF01AC045
:101FD00002F01BC003F00001B05100011A24006E92
:101FE000000E1B20016E300E0024E66E04DFE55269
:101FF000D950FD0FE96EFF0EDA20EA6EE70ED880A9
:10200000EE54030EED5422E2FD0EDBCF00F0FE0E87
:10201000DBCF01F0E80E236E030E246E00C01EF02D
:1020200001C01FF0E1EC2CF01EC000F01FC001F059
:102030000A0E236E246AE1EC2CF01AC000F01BC0DB
:1020400001F0300E1A24E66ED6DEE552D950FD0FAF
:10205000E96EFF0EDA20EA6E630ED880EE54000EB1
:10206000ED5429E2FD0EDBCF02F0FE0EDBCF03F0D4
:10207000640E236E246A02C01EF003C01FF0E1EC60
:102080002CF01EC002F01FC003F00A0E236E246A5B
:10209000E1EC2CF01AC002F01BC003F00001B051BB
:1020A00000011A24006E000E1B20016E300E002469
:1020B000E66EA1DEE552D950FD0FE96EFF0EDA2083
:1020C000EA6E090ED880EE54000EED5429E2FD0EA2
:1020D000DBCF02F0FE0EDBCF03F00A0E236E246A84
:1020E00002C01EF003C01FF0E1EC2CF01EC002F095
:1020F0001FC003F00A0E236E246AE1EC2CF01AC014
:1021000002F01BC003F00001B05100011A24006E60
:10211000000E1B20016E300E0024E66E6CDEE552D0
:10212000FD0EDBCF02F0FE0EDBCF03F00A0E236EB6
:10213000246A02C01EF003C01FF0E1EC2CF01AC0AC
:1021400002F01BC003F00001B05100011A24006E20
:10215000000E1B20016E300E0024E66E4CDEE552B0
:10216000E552E7CFD9FF1200D9CFE6FFE1CFD9FF83
:10217000020EE1260C0E0001B025BD12070EB0259F
:10218000CA6EFD0EA96EA680A850FEE1FD0E0001EC
:10219000B025E8249416B0C004F0056A066A076A00
:1021A000100E1E6E1F6AFD0EDBCF23F0FE0EDBCF7E
:1021B00024F0F3EC28F01CC00CF01DC00DF00E6AEA
:1021C0000F6A0DAE02D00E680F68086A1B0E096E0A
:1021D000B70E0A6E0B6A08C01CF009C01DF01E6E17
:1021E0000BC01FF00CC021F00DC022F00EC023F078
:1021F0000FC024F0BFEC28F004501C24006E0550E2
:102200001D20016E06501E2007501F200006000EE4
:10221000015A0050CB6ECB28026E036A1E6E03C0BB
:102220001FF0FB0EDBCF23F0FC0EDBCF24F0F3EC32
:1022300028F01CC000F01DC001F0190E236E246AA6
:102240001CC01EF01DC01FF099EC28F01EC0DEFF60
:102250001FC0DDFF0001B051026E036ADE50022490
:10226000006EDD500320016ED89001320032D8900C
:10227000013200320050BE6EDECF02F0DDCF03F03F
:10228000030E0216000E0316B05100010224006E68
:10229000000E0320040ED8900036E804FCE1005044
:1022A000BD12020EE15C02E2E16AE552E16EE55226
:1022B000E7CFD9FF1200D9CFE6FFE1CFD9FF020E59
:1022C000E1260C0E0001B025BA12070EB025CA6E29
:1022D000FD0EA96EA680A850FEE1FE0E0001B025FD
:1022E000E8249416B0C004F0056A066A076A100E66
:1022F0001E6E1F6AFD0EDBCF23F0FE0EDBCF24F037
:10230000F3EC28F01CC00CF01DC00DF00E6A0F6A33
:102310000DAE02D00E680F68086A1B0E096EB70E6C
:102320000A6E0B6A08C01CF009C01DF01E6E0BC0BF
:102330001FF00CC021F00DC022F00EC023F00FC022
:1023400024F0BFEC28F004501C24006E05501D2022
:10235000016E06501E2007501F200006000E015A75
:102360000050CB6ECB28026E036A1E6E03C01FF0B6
:10237000FB0EDBCF23F0FC0EDBCF24F0F3EC28F0D8
:102380001CC000F01DC001F0190E236E246A1CC091
:102390001EF01DC01FF099EC28F01EC0DEFF1FC00C
:1023A000DDFF0001B051026E036ADE500224006EB0
:1023B000DD500320016ED89001320032D8900132F6
:1023C00000320050BB6EDECF00F0DDCF01F0030E17
:1023D0000016000E0116040ED8900036E804FCE149
:1023E0000050BA12020EE15C02E2E16AE552E16ECF
:1023F000E552E7CFD9FF1200D9CFE6FFE1CFD9FFF1
:10240000FB0EDBCF00F0FC0EDBCF01F0FD0EDBCFCF
:1024100002F0FE0EDBCF03F0226A236A246A256AEB
:1024200000C01DF001C01EF002C01FF003C020F06C
:10243000A4EC29F0010A33E1F90EDBCFE9FFDB2A36
:10244000FA0EDBCFEAFF01E3DB2A2D0EEF6EFB0E67
:10245000DBCF00F0FC0EDBCF01F0FD0EDBCF02F096
:10246000FE0EDBCF03F0226A236A800E246EBF0EBD
:10247000256E00C01DF001C01EF002C01FF003C099
:1024800020F095EC27F0FB0E1DC0DBFFFC0E1EC0FC
:10249000DBFFFD0E1FC0DBFFFE0E20C0DBFFFB0ECF
:1024A000DBCF06F0FC0EDBCF07F0FD0EDBCF08F034
:1024B000FE0EDBCF09F0FB0EDBCF1DF0FC0EDBCFF9
:1024C0001EF0FD0EDBCF1FF0FE0EDBCF20F06DEC1B
:1024D00029F029EC27F01DC00AF01EC00BF01FC028
:1024E0000CF020C00DF01DC022F01EC023F01FC054
:1024F00024F020C025F006C01DF007C01EF008C063
:102500001FF009C020F002EC28F01DC002F01EC030
:1025100003F01FC004F020C005F0226A236AC80E31
:10252000246E420E256E95EC27F03EEC29F01EC07D
:1025300000F01FC001F01EC0E6FF1FC0E6FFFB0E4B
:10254000DBCF1DF0FC0EDBCF1EF0FD0EDBCF1FF04E
:10255000FE0EDBCF20F06DEC29F01CC00EF01DC08C
:102560000FF01EC010F01FC011F01CC0E6FF1DC010
:10257000E6FF1EC0E6FF1FC0E6FFB70E126E5A0E42
:10258000136E146A12C0E6FFE66E14C0E6FFF90E81
:10259000DBCFE6FFFA0EDBCFE6FF4CEC2BF0156E3F
:1025A0000B0EE15E1550A40EE66E000EE66E90DC9A
:1025B000E552E552E552E7CFD9FF1200D9CFE6FF49
:1025C000E1CFD9FF050EE126DE6ADE6ADE6ADD6A4A
:1025D000DD52DD52110EE66E7C0EE66E68EC09F0FF
:1025E000E552E552040EDB6ADBCF00F0200EE76E09
:1025F0000018E8AE02D0E73402D0E750005C56E2A3
:10260000100EE66E7C0EE66E8EEC08F0E552E5529A
:1026100082A41CD0010E006E016A026A036AD9CF3F
:10262000E9FFDACFEAFFEE500012EE500112EE5051
:102630000212EE50031200C0DFFF010E01C0DBFFEB
:10264000020E02C0DBFF030E03C0DBFF100EE66EBE
:102650007C0EE66E68EC09F0E552E552040EDB50A4
:102660001F0821E0D9CFE9FFDACFEAFFEECF00F073
:10267000EECF01F0EECF02F0EFCF03F0010E1F0B13
:1026800007E0D8900036013602360336E806F9E155
:1026900000C0DFFF010E01C0DBFF020E02C0DBFF46
:1026A000030E03C0DBFF040EDB2A9ED7110EE66E7D
:1026B0007C0EE66E8EEC08F0E552E552120E046ECA
:1026C000D9CFE9FFDACFEAFFE8501F0BEECF00F0D9
:1026D000EECF01F0EECF02F0EECF03F007E0D8909E
:1026E0000332023201320032E806F9E11F0E011610
:1026F000026A036A00C0DFFF010E01C0DBFF020EA9
:1027000002C0DBFF030E03C0DBFFD9CFE9FFDACF46
:10271000EAFFEECF04F0EECF05F0EECF06F0EFCFFC
:1027200007F004C01CF005C01DF006C01EF007C075
:102730001FF027EC27F01DC000F01EC001F01FC0E5
:1027400002F020C003F0226A236A800E246E3E0E3F
:10275000256E95EC27F01DC0DFF01EC0E0F01FC015
:10276000E1F020C0E2F0050EE15C02E2E16AE55230
:10277000E16EE552E7CFD9FF1200DACFE4FFE2CFF6
:10278000DAFFE9CFE4FFEACFE4FFF6CFE4FFF7CFCB
:10279000E4FFF5CFE4FFF3CFE4FFF4CFE4FFFACF9B
:1027A000E4FF00EE16F0140EE80403E3EECFE4FFBE
:1027B000FBD700EE00F0160EE80403E3EECFE4FFD3
:1027C000FBD7E6529EAA9CD09E9AC2EC2CF0E66EF5
:1027D000DBC0E9FFEA6AE9BEEA68640EE926000E9A
:1027E000EA22E552E750EF6EDBC0DCF0DBC0E9FF28
:1027F000EA6AE9BEEA68640EE926000EEA22EF50B2
:10280000590A15E0730A0EE0790A0CE0120A0AE090
:10281000080A03E00A0A10E105D0010E0001D56F95
:10282000D66B0AD0010E0001D36FD46B05D0000126
:10283000DB6B0001590E646F590E0001645D32E1DB
:102840000001DB052FE1200E0001645DAE50540A4B
:102850001DE0040A12E0140A09E0080A23E10F0E41
:10286000E66E7C0EE66E8EEC08F016D00F0EE66E6D
:102870007C0EE66E68EC09F006D00F0EE66E7C0E5C
:10288000E66E8EEC08F0E552E5520CD00F0EE66EC7
:102890007C0EE66E42EC0AF0E552E552010E0001B4
:1028A000D96FDA6B4F0E0001655D0BE14E0E665D70
:1028B00008E10F0EE66E7C0EE66E8EEC08F0E55237
:1028C000E5524F0E0001655D0EE1460E665D0BE1BF
:1028D000460E675D08E10F0EE66E7C0EE66E68EC54
:1028E00009F0E552E5520001DB2B400EE76EDB19E3
:1028F000E8AE02D0E73402D0E750DB5D01E3DB6BEA
:10290000E55200EE15F0160EE80403E3E5CFEDFF07
:10291000FBD700EE29F0140EE80403E3E5CFEDFF4A
:10292000FBD7E5CFFAFFE5CFF4FFE5CFF3FFE5CF27
:10293000F5FFE5CFF7FFE5CFF6FFE5CFEAFFE5CFFF
:10294000E9FFE5CFDAFF1100D9CFE6FFE1CFD9FFEC
:10295000E652110EDF6E020EB06E700EAF6ED00E2C
:10296000E66E070EE66E6DEC0CF0E552E552380EA1
:10297000DF24E66E0AEC0FF0E552480EE66E0AEC34
:102980000FF0E552480EE66E0AEC0FF0E5520F0E1E
:10299000E66E7C0EE66E42EC0AF0E552E552F40E6D
:1029A000E66E010EE66E6DEC0CF0E552E5520F0E90
:1029B000E66E7C0EE66E42EC0AF0E552E55200014E
:1029C000D351D4111CE1040EB06EE10EAF6EA00E17
:1029D000E66E0F0EE66E6DEC0CF0E552E552380E29
:1029E000DF24E66E0AEC0FF0E552480EE66E0AECC4
:1029F0000FF0E552480EE66E0AEC0FF0D7D7D36B16
:102A0000D46BDF06DFCF00F0BD0E0024E66E0AECCB
:102A10000FF0E552C20EE66E0AEC0FF0E552C60E5C
:102A2000E66E0AEC0FF0E552E80EE66E0AEC0FF0E7
:102A3000E552DE0EE66E0AEC0FF0E552E40EE66EAD
:102A40000AEC0FF0E552F20EE66E0AEC0FF0E552DA
:102A5000400EE66E0AEC0FF0E552A40EE66E0AECAC
:102A60000FF0E5521A0EE66E0AEC0FF0E552E80E92
:102A7000E66E030EE66E6DEC0CF0E552E5520F0EBD
:102A8000E66E7C0EE66E42EC0AF0E552E55200017D
:102A9000D351D4113DE1D00EE66E070EE66E6DEC1B
:102AA0000CF0E552E552DFCF00F0BD0E0024E66EDB
:102AB0000AEC0FF0E552C20EE66E0AEC0FF0E5529A
:102AC000C60EE66E0AEC0FF0E552E80EE66E0AEC72
:102AD0000FF0E552DE0EE66E0AEC0FF0E552E40E62
:102AE000E66E0AEC0FF0E552F20EE66E0AEC0FF01D
:102AF000E552400EE66E0AEC0FF0E552A40EE66ECB
:102B00000AEC0FF0E5521A0EE66E0AEC0FF0B6D79B
:102B1000D36BD46BDF06DFCF00F0D80E0024E66E57
:102B20000AEC0FF0E552CA0EE66E0AEC0FF0E55221
:102B3000E80EE66E0AEC0FF0E552400EE66E0AEC87
:102B40000FF0E552D20EE66E0AEC0FF0E552400EA1
:102B5000E66E0AEC0FF0E552C20EE66E0AEC0FF0DC
:102B6000E552200EE66EFBEC0EF0E552C3C0E6FF28
:102B7000FBEC0EF0E552C4C0E6FFFBEC0EF0E552B4
:102B8000C5C0E6FFFBEC0EF0E552C6C0E6FFFBEC6D
:102B90000EF0E552C7C0E6FFFBEC0EF0E552C8C0F0
:102BA000E6FFFBEC0EF0E552C9C0E6FFFBEC0EF0D1
:102BB000E552CAC0E6FFFBEC0EF0E552CBC0E6FFE3
:102BC000FBEC0EF0E552CCC0E6FFFBEC0EF0E5525C
:102BD000CDC0E6FFFBEC0EF0E552CEC0E6FFFBEC0D
:102BE0000EF0E552CFC0E6FFFBEC0EF0E552D0C090
:102BF000E6FFFBEC0EF0E5521A0EE66E0AEC0FF063
:102C0000E552E80EE66E030EE66E6DEC0CF0E55252
:102C1000E5520F0EE66E7C0EE66E42EC0AF0E552CF
:102C2000E5520001D351D41101E07ED0D00EE66E02
:102C3000070EE66E6DEC0CF0E552E552DFCF00F0CA
:102C4000D80E0024E66E0AEC0FF0E552CA0EE66ECE
:102C50000AEC0FF0E552E80EE66E0AEC0FF0E552D2
:102C6000400EE66E0AEC0FF0E552D20EE66E0AEC6C
:102C70000FF0E552400EE66E0AEC0FF0E552C20E80
:102C8000E66E0AEC0FF0E552200EE66EFBEC0EF05D
:102C9000E552C3C0E6FFFBEC0EF0E552C4C0E6FF10
:102CA000FBEC0EF0E552C5C0E6FFFBEC0EF0E55282
:102CB000C6C0E6FFFBEC0EF0E552C7C0E6FFFBEC3A
:102CC0000EF0E552C8C0E6FFFBEC0EF0E552C9C0BD
:102CD000E6FFFBEC0EF0E552CAC0E6FFFBEC0EF09F
:102CE000E552CBC0E6FFFBEC0EF0E552CCC0E6FFB0
:102CF000FBEC0EF0E552CDC0E6FFFBEC0EF0E5522A
:102D0000CEC0E6FFFBEC0EF0E552CFC0E6FFFBECD9
:102D10000EF0E552D0C0E6FFFBEC0EF0E5521A0EC5
:102D2000E66E0AEC0FF074D7D36BD46BDF06DFCFFF
:102D300000F0D90E0024E66E0AEC0FF0E552CA0E40
:102D4000E66E0AEC0FF0E552E80EE66E0AEC0FF0C4
:102D5000E552400EE66E0AEC0FF0E552D20EE66E3A
:102D60000AEC0FF0E552400EE66E0AEC0FF0E55269
:102D7000CE0EE66E0AEC0FF0E552400EE66E0AEC5F
:102D80000FF0E552C3C0E6FFFBEC0EF0E552C4C005
:102D9000E6FFFBEC0EF0E552C5C0E6FFFBEC0EF0E3
:102DA000E552C6C0E6FFFBEC0EF0E552C7C0E6FFF9
:102DB000FBEC0EF0E552C8C0E6FFFBEC0EF0E5526E
:102DC000C9C0E6FFFBEC0EF0E552CAC0E6FFFBEC23
:102DD0000EF0E552CBC0E6FFFBEC0EF0E552CCC0A6
:102DE000E6FFFBEC0EF0E5522E0E0001CC5D03E198
:102DF000CDC0E6FF07D0CDC0E6FFFBEC0EF0E552FC
:102E0000CEC0E6FFFBEC0EF0E5521A0EE66E0AECC1
:102E10000FF0E552E80EE66E030EE66E6DEC0CF078
:102E2000E552E5520F0EE66E7C0EE66E42EC0AF0BD
:102E3000E552E5520001D351D41101E07BD0D00E10
:102E4000E66E070EE66E6DEC0CF0E552E552DFCF54
:102E500000F0D90E0024E66E0AEC0FF0E552CA0E1F
:102E6000E66E0AEC0FF0E552E80EE66E0AEC0FF0A3
:102E7000E552400EE66E0AEC0FF0E552D20EE66E19
:102E80000AEC0FF0E552400EE66E0AEC0FF0E55248
:102E9000CE0EE66E0AEC0FF0E552400EE66E0AEC3E
:102EA0000FF0E552C3C0E6FFFBEC0EF0E552C4C0E4
:102EB000E6FFFBEC0EF0E552C5C0E6FFFBEC0EF0C2
:102EC000E552C6C0E6FFFBEC0EF0E552C7C0E6FFD8
:102ED000FBEC0EF0E552C8C0E6FFFBEC0EF0E5524D
:102EE000C9C0E6FFFBEC0EF0E552CAC0E6FFFBEC02
:102EF0000EF0E552CBC0E6FFFBEC0EF0E552CCC085
:102F0000E6FFFBEC0EF0E5522E0E0001CC5D03E176
:102F1000CDC0E6FF07D0CDC0E6FFFBEC0EF0E552DA
:102F2000CEC0E6FFFBEC0EF0E5521A0EE66E0AECA0
:102F30000FF077D7D36BD46BDF06DFCF00F0DA0E5C
:102F40000024E66E0AEC0FF0E552CA0EE66E0AECBB
:102F50000FF0E552E80EE66E0AEC0FF0E552400E77
:102F6000E66E0AEC0FF0E552D20EE66E0AEC0FF0B8
:102F7000E552400EE66E0AEC0FF0E552C80EE66E22
:102F80000AEC0FF0E552400EE66E0AEC0FF0E55247
:102F9000600EE66E0AEC0FF0E5521A0EE66E0AECD1
:102FA0000FF0E552F40EE66E010EE66E6DEC0CF0DD
:102FB000E552E5520F0EE66E7C0EE66E42EC0AF02C
:102FC000E552E5520001D351D4113DE1E80EE66E21
:102FD000030EE66E6DEC0CF0E552E552DFCF00F02B
:102FE000DA0E0024E66E0AEC0FF0E552CA0EE66E29
:102FF0000AEC0FF0E552E80EE66E0AEC0FF0E5522F
:10300000400EE66E0AEC0FF0E552D20EE66E0AECC8
:103010000FF0E552400EE66E0AEC0FF0E552C80ED6
:10302000E66E0AEC0FF0E552400EE66E0AEC0FF089
:10303000E552600EE66E0AEC0FF0E5521A0EE66EEF
:103040000AEC0FF0B6D7D36BD46BDF06DFCF00F0FE
:10305000DB0E0024E66E0AEC0FF0E552CA0EE66EB7
:103060000AEC0FF0E552E80EE66E0AEC0FF0E552BE
:10307000400EE66E0AEC0FF0E552EA0EE66E0AEC40
:103080000FF0E552400EE66E0AEC0FF0E552C40E6A
:10309000E66E0AEC0FF0E552400EE66E0AEC0FF019
:1030A000E552620EE66E0AEC0FF0E552720EE66E25
:1030B0000AEC0FF0E552640EE66E0AEC0FF0E552F2
:1030C000600EE66E0AEC0FF0E552600EE66E0AEC5A
:1030D0000FF0E5521A0EE66E0AEC0FF0E5520F0EF5
:1030E000E66E7C0EE66E42EC0AF0E552E552E80E22
:1030F000E66E030EE66E6DEC0CF0E552E5520F0E37
:10310000E66E7C0EE66E42EC0AF0E552E552DFCF49
:1031100000F0DB0E0024E66E0AEC0FF0E552CA0E5A
:10312000E66E0AEC0FF0E552E80EE66E0AEC0FF0E0
:10313000E552400EE66E0AEC0FF0E552D20EE66E56
:103140000AEC0FF0E552E00EE66E0AEC0FF0E552E5
:10315000400EE66E0AEC0FF0E552E00EE66E0AEC69
:103160000FF0E552E40EE66E0AEC0FF0E552DE0ECB
:10317000E66E0AEC0FF0E552E80EE66E0AEC0FF090
:10318000E552DE0EE66E0AEC0FF0E552400EE66EFA
:103190000AEC0FF0E552620EE66E0AEC0FF0E55213
:1031A000700EE66E0AEC0FF0E5521A0EE66E0AECAF
:1031B0000FF0E552E80EE66E030EE66E6DEC0CF0D5
:1031C000E552E5520F0EE66E7C0EE66E42EC0AF01A
:1031D000E552E552DFCF00F0DB0E0024E66E0AEC8C
:1031E0000FF0E552CA0EE66E0AEC0FF0E552E80E5B
:1031F000E66E0AEC0FF0E552400EE66E0AEC0FF0B8
:10320000E552DE0EE66E0AEC0FF0E552400EE66E79
:103210000AEC0FF0E552C80EE66E0AEC0FF0E5522C
:10322000400EE66E0AEC0FF0E552A60EE66E0AECD2
:103230000FF0E552C20EE66E0AEC0FF0E552DC0E1E
:10324000E66E0AEC0FF0E552AA0EE66E0AEC0FF0FD
:10325000E552A60EE66E0AEC0FF0E552840EE66E1D
:103260000AEC0FF0E5525A0EE66E0AEC0FF0E5524A
:10327000CC0EE66E0AEC0FF0E552D80EE66E0AECC4
:103280000FF0E552F20EE66E0AEC0FF0E5521A0E60
:10329000E66E0AEC0FF0E552F40EE66E010EE66EF5
:1032A0006DEC0CF0E552E5520F0EE66E7C0EE66E0C
:1032B00042EC0AF0E552E552DFCF00F0DB0E0024CD
:1032C000E66E0AEC0FF0E552C20EE66E0AEC0FF065
:1032D000E552EC0EE66E0AEC0FF0E552CA0EE66E11
:1032E0000AEC0FF0E5521A0EE66E0AEC0FF0E5520A
:1032F000E80EE66E030EE66E6DEC0CF0E552E5525C
:103300000F0EE66E7C0EE66E42EC0AF0E552E552D8
:103310000001D351D41107E1D00EE66E070EE66E20
:103320006DEC0CF0C7D7D36BD46BDF06DFCF00F0AA
:10333000DA0E0024E66E0AEC0FF0E552CA0EE66ED5
:103340000AEC0FF0E552C40EE66E0AEC0FF0E552FF
:10335000DE0EE66E0AEC0FF0E552DE0EE66E0AECCB
:103360000FF0E552E80EE66E0AEC0FF0E5521A0E89
:10337000E66E0AEC0FF0E552E80EE66E030EE66E1E
:103380006DEC0CF0E552E5520F0EE66E7C0EE66E2B
:1033900042EC0AF0E552E5520001D351D41104E1A8
:1033A000A00EE66E0F0EEBD7DFCF00F0DA0E002492
:1033B000E66E0AEC0FF0E552CA0EE66E0AEC0FF06C
:1033C000E552C40EE66E0AEC0FF0E552DE0EE66E34
:1033D0000AEC0FF0E552DE0EE66E0AEC0FF0E55255
:1033E000E80EE66E0AEC0FF0E5521A0EE66E0AECF5
:1033F0000FF0E5520001D36BD46BDF06020EB06E06
:10340000700EAF6E640EE66EE66A6DEC0CF0E5527F
:10341000E5523F0EDF24E66E0AEC0FF0E552480E4F
:10342000E66E0AEC0FF0E552480EE66E0AEC0FF07D
:10343000E5520F0EE66E7C0EE66E42EC0AF0E552A7
:10344000E552F40EE66E010EE66E6DEC0CF0E55200
:10345000E5520F0EE66E7C0EE66E42EC0AF0E55287
:10346000E5520001D351D41127E1A00EE66E0F0EF4
:10347000E66E6DEC0CF0E552E5523F0EDF24E66E91
:103480000AEC0FF0E552480EE66E0AEC0FF0E5523A
:10349000480EE66E0AEC0FF0E5520F0EE66E7C0E5B
:1034A000E66E42EC0AF0E552E552F40EE66E010ECD
:1034B000E66E6DEC0CF0D3D7D36BD46BDF06DFCFA9
:1034C00000F0DE0E0024E66E0AEC0FF0E552CA0EA4
:1034D000E66E0AEC0FF0E552E80EE66E0AEC0FF02D
:1034E000E552400EE66E0AEC0FF0E552EE0EE66E87
:1034F0000AEC0FF0E552400EE66E0AEC0FF0E552D2
:10350000E60EE66E0AEC0FF0E552400EE66E0AECAF
:103510000FF0E552B3C0E6FFFBEC0EF0E552B4C08D
:10352000E6FFFBEC0EF0E552B5C0E6FFFBEC0EF05B
:10353000E552B6C0E6FFFBEC0EF0E552B7C0E6FF81
:10354000FBEC0EF0E552B8C0E6FFFBEC0EF0E552E6
:10355000B9C0E6FFFBEC0EF0E552BAC0E6FFFBECAB
:103560000EF0E552BBC0E6FFFBEC0EF0E552BCC02E
:10357000E6FFFBEC0EF0E552BDC0E6FFFBEC0EF003
:10358000E552BEC0E6FFFBEC0EF0E552BFC0E6FF21
:10359000FBEC0EF0E552C0C0E6FFFBEC0EF0E5528E
:1035A000C1C0E6FFFBEC0EF0E552C2C0E6FFFBEC4B
:1035B0000EF0E552C3C0E6FFFBEC0EF0E5521A0E2A
:1035C000E66E0AEC0FF0E552F40EE66E010EE66EC2
:1035D0006DEC0CF0E552E5520F0EE66E7C0EE66ED9
:1035E00042EC0AF0E552E5520001D351D41109E151
:1035F000D00EE66E070EE66E6DEC0CF0E552E5526D
:103600005ED7D36BD46BDF06DFCF00F0DF0E002474
:10361000E66E0AEC0FF0E552CA0EE66E0AEC0FF009
:10362000E552E80EE66E0AEC0FF0E552400EE66E4B
:103630000AEC0FF0E552EE0EE66E0AEC0FF0E552E2
:10364000400EE66E0AEC0FF0E552E00EE66E0AEC74
:103650000FF0E552400EE66E0AEC0FF0E552BAC0EC
:10366000E6FFFBEC0EF0E552BBC0E6FFFBEC0EF014
:10367000E552BCC0E6FFFBEC0EF0E552BDC0E6FF34
:10368000FBEC0EF0E552BEC0E6FFFBEC0EF0E5529F
:10369000BFC0E6FFFBEC0EF0E552C0C0E6FFFBEC5E
:1036A0000EF0E552C1C0E6FFFBEC0EF0E552C2C0E1
:1036B000E6FFFBEC0EF0E552C3C0E6FFFBEC0EF0BC
:1036C000E552C4C0E6FFFBEC0EF0E552C5C0E6FFD4
:1036D000FBEC0EF0E552C6C0E6FFFBEC0EF0E55247
:1036E000C7C0E6FFFBEC0EF0E552C8C0E6FFFBECFE
:1036F0000EF0E552C9C0E6FFFBEC0EF0E552CAC081
:10370000E6FFFBEC0EF0E5521A0EE66E0AEC0FF047
:10371000E552F40EE66E010EE66E6DEC0CF0E5522D
:10372000E5520F0EE66E7C0EE66E42EC0AF0E552B4
:10373000E5520001D351D41109E1D00EE66E070E17
:10374000E66E6DEC0CF0E552E5525ED7D36BD46BB0
:10375000DF06DFCF00F0E00E0024E66E0AEC0FF08B
:10376000E552CA0EE66E0AEC0FF0E552E80EE66E80
:103770000AEC0FF0E552400EE66E0AEC0FF0E5524F
:10378000C60EE66E0AEC0FF0E552DE0EE66E0AECAF
:103790000FF0E552DA0EE66E0AEC0FF0E552DA0EA3
:1037A000E66E0AEC0FF0E552400EE66E0AEC0FF002
:1037B000E552DE0EE66E0AEC0FF0E552E00EE66E24
:1037C0000AEC0FF0E552CA0EE66E0AEC0FF0E55275
:1037D000DC0EE66E0AEC0FF0E552400EE66E0AECE7
:1037E0000FF0E552540EE66E0AEC0FF0E552A60E0D
:1037F000E66E0AEC0FF0E552C20EE66E0AEC0FF030
:10380000E552DC0EE66E0AEC0FF0E552AA0EE66E0B
:103810000AEC0FF0E552A60EE66E0AEC0FF0E55248
:10382000840EE66E0AEC0FF0E552540EE66E0AECDA
:103830000FF0E5521A0EE66E0AEC0FF0E552F40EA8
:10384000E66E010EE66E6DEC0CF0E552E5520F0EE1
:10385000E66E7C0EE66E42EC0AF0E552E55200019F
:10386000D351D41101E07ED0E80EE66E030EE66E71
:103870006DEC0CF0E552E552DFCF00F0E00E0024D5
:10388000E66E0AEC0FF0E552CA0EE66E0AEC0FF097
:10389000E552E80EE66E0AEC0FF0E552400EE66ED9
:1038A0000AEC0FF0E552C60EE66E0AEC0FF0E55298
:1038B000DE0EE66E0AEC0FF0E552DA0EE66E0AEC6A
:1038C0000FF0E552DA0EE66E0AEC0FF0E552400E0C
:1038D000E66E0AEC0FF0E552DE0EE66E0AEC0FF033
:1038E000E552E00EE66E0AEC0FF0E552CA0EE66E07
:1038F0000AEC0FF0E552DC0EE66E0AEC0FF0E55232
:10390000400EE66E0AEC0FF0E552540EE66E0AEC3D
:103910000FF0E552A60EE66E0AEC0FF0E552C20E6D
:10392000E66E0AEC0FF0E552DC0EE66E0AEC0FF0E4
:10393000E552AA0EE66E0AEC0FF0E552A60EE66E10
:103940000AEC0FF0E552840EE66E0AEC0FF0E55239
:10395000540EE66E0AEC0FF0E5521A0EE66E0AEC13
:103960000FF074D7D36BD46BDF06DFCF00F0E10E1E
:103970000024E66E0AEC0FF0E552CA0EE66E0AEC81
:103980000FF0E552E80EE66E0AEC0FF0E552400E3D
:10399000E66E0AEC0FF0E552C60EE66E0AEC0FF08A
:1039A000E552DE0EE66E0AEC0FF0E552DA0EE66E38
:1039B0000AEC0FF0E552DA0EE66E0AEC0FF0E55273
:1039C000400EE66E0AEC0FF0E552E40EE66E0AECED
:1039D0000FF0E552CA0EE66E0AEC0FF0E552DA0E71
:1039E000E66E0AEC0FF0E552DE0EE66E0AEC0FF022
:1039F000E552E80EE66E0AEC0FF0E552CA0EE66EEE
:103A00000AEC0FF0E552400EE66E0AEC0FF0E552BC
:103A10003C0EE66E0AEC0FF0E5521A0EE66E0AEC6A
:103A20000FF0E5520F0EE66E7C0EE66E42EC0AF0E9
:103A3000E552E552F40EE66E010EE66E6DEC0CF00A
:103A4000E552E5520F0EE66E7C0EE66E42EC0AF091
:103A5000E552E5520001D351D41101E088D0E80EBF
:103A6000E66E030EE66E6DEC0CF0E552E552DFCF2C
:103A700000F0E10E0024E66E0AEC0FF0E552CA0EEB
:103A8000E66E0AEC0FF0E552E80EE66E0AEC0FF077
:103A9000E552400EE66E0AEC0FF0E552C60EE66EF9
:103AA0000AEC0FF0E552DE0EE66E0AEC0FF0E5527E
:103AB000DA0EE66E0AEC0FF0E552DA0EE66E0AEC6C
:103AC0000FF0E552400EE66E0AEC0FF0E552E40E00
:103AD000E66E0AEC0FF0E552CA0EE66E0AEC0FF045
:103AE000E552DA0EE66E0AEC0FF0E552DE0EE66EF7
:103AF0000AEC0FF0E552E80EE66E0AEC0FF0E55224
:103B0000CA0EE66E0AEC0FF0E552400EE66E0AECC5
:103B10000FF0E552540EE66E0AEC0FF0E552A60ED9
:103B2000E66E0AEC0FF0E552C20EE66E0AEC0FF0FC
:103B3000E552DC0EE66E0AEC0FF0E552AA0EE66ED8
:103B40000AEC0FF0E552A60EE66E0AEC0FF0E55215
:103B5000840EE66E0AEC0FF0E552540EE66E0AECA7
:103B60000FF0E5521A0EE66E0AEC0FF06AD7D36B2F
:103B7000D46BDF06DFCF00F0E20E0024E66E0AEC25
:103B80000FF0E552CA0EE66E0AEC0FF0E552E80EB1
:103B9000E66E0AEC0FF0E552400EE66E0AEC0FF00E
:103BA000E552D20EE66E0AEC0FF0E552E00EE66E3C
:103BB0000AEC0FF0E552400EE66E0AEC0FF0E5520B
:103BC000D80EE66E0AEC0FF0E552DE0EE66E0AEC59
:103BD0000FF0E552C60EE66E0AEC0FF0E552C20E8B
:103BE000E66E0AEC0FF0E552D80EE66E0AEC0FF026
:103BF000E552400EE66E0AEC0FF0E552700EE66EEE
:103C00000AEC0FF0E552600EE66E0AEC0FF0E5529A
:103C10001A0EE66E0AEC0FF0E552F40EE66E010E97
:103C2000E66E6DEC0CF0E552E5520F0EE66E7C0E82
:103C3000E66E42EC0AF0E552E5520001D351D41190
:103C40005BE1E80EE66E030EE66E6DEC0CF0E552FD
:103C5000E552DFCF00F0E20E0024E66E0AEC0FF032
:103C6000E552CA0EE66E0AEC0FF0E552E80EE66E7B
:103C70000AEC0FF0E552400EE66E0AEC0FF0E5524A
:103C8000D20EE66E0AEC0FF0E552E00EE66E0AEC9C
:103C90000FF0E552400EE66E0AEC0FF0E552D80E3A
:103CA000E66E0AEC0FF0E552DE0EE66E0AEC0FF05F
:103CB000E552C60EE66E0AEC0FF0E552C20EE66E55
:103CC0000AEC0FF0E552D80EE66E0AEC0FF0E55262
:103CD000400EE66E0AEC0FF0E552700EE66E0AEC4E
:103CE0000FF0E552600EE66E0AEC0FF0E5521A0E88
:103CF000E66E0AEC0FF098D7D36BD46BDF06DFCFFC
:103D000000F0E30E0024E66E0AEC0FF0E552C20E5E
:103D1000E66E0AEC0FF0E552EC0EE66E0AEC0FF0E0
:103D2000E552CA0EE66E0AEC0FF0E5521A0EE66E88
:103D30000AEC0FF0E552E80EE66E030EE66E6DEC4F
:103D40000CF0E552E5520F0EE66E7C0EE66E42EC8C
:103D50000AF0E552E5520001D351D41133E1D00EFF
:103D6000E66E070EE66E6DEC0CF0E552E552DFCF25
:103D700000F0E30E0024E66E0AEC0FF0E552C20EEE
:103D8000E66E0AEC0FF0E552EC0EE66E0AEC0FF070
:103D9000E552CA0EE66E0AEC0FF0E5521A0EE66E18
:103DA0000AEC0FF0E552E80EE66E030EE66E6DECDF
:103DB0000CF0E552E5520F0EE66E7C0EE66E42EC1C
:103DC0000AF0BFD7D36BD46BDF06DFCF00F0D20E83
:103DD0000024E66E0AEC0FF0E552DE0EE66E0AEC09
:103DE0000FF0E552D20EE66E0AEC0FF0E552DC0E53
:103DF000E66E0AEC0FF0E552400EE66E0AEC0FF0AC
:103E0000E552B3C0E6FFFBEC0EF0E552B4C0E6FFAE
:103E1000FBEC0EF0E552B5C0E6FFFBEC0EF0E55210
:103E2000B6C0E6FFFBEC0EF0E552B7C0E6FFFBECD8
:103E30000EF0E552B8C0E6FFFBEC0EF0E552B9C05B
:103E4000E6FFFBEC0EF0E552BAC0E6FFFBEC0EF02D
:103E5000E552BBC0E6FFFBEC0EF0E552BCC0E6FF4E
:103E6000FBEC0EF0E552BDC0E6FFFBEC0EF0E552B8
:103E7000BEC0E6FFFBEC0EF0E552BFC0E6FFFBEC78
:103E80000EF0E552C0C0E6FFFBEC0EF0E552C1C0FB
:103E9000E6FFFBEC0EF0E552C2C0E6FFFBEC0EF0D5
:103EA000E552C3C0E6FFFBEC0EF0E552C4C0E6FFEE
:103EB000FBEC0EF0E5521A0EE66E0AEC0FF0E5523E
:103EC0000F0EE66E7C0EE66E42EC0AF0E552E5520D
:103ED000A00EE66E0F0EE66E6DEC0CF0E552E552AC
:103EE0000F0EE66E7C0EE66E42EC0AF0E552E552ED
:103EF0000001D551D61101E083D0A00EE66E0F0E61
:103F0000E66E6DEC0CF0E552E552DFCF00F0D20E1C
:103F10000024E66E0AEC0FF0E552DE0EE66E0AECC7
:103F20000FF0E552D20EE66E0AEC0FF0E552DC0E11
:103F3000E66E0AEC0FF0E552400EE66E0AEC0FF06A
:103F4000E552B3C0E6FFFBEC0EF0E552B4C0E6FF6D
:103F5000FBEC0EF0E552B5C0E6FFFBEC0EF0E552CF
:103F6000B6C0E6FFFBEC0EF0E552B7C0E6FFFBEC97
:103F70000EF0E552B8C0E6FFFBEC0EF0E552B9C01A
:103F8000E6FFFBEC0EF0E552BAC0E6FFFBEC0EF0EC
:103F9000E552BBC0E6FFFBEC0EF0E552BCC0E6FF0D
:103FA000FBEC0EF0E552BDC0E6FFFBEC0EF0E55277
:103FB000BEC0E6FFFBEC0EF0E552BFC0E6FFFBEC37
:103FC0000EF0E552C0C0E6FFFBEC0EF0E552C1C0BA
:103FD000E6FFFBEC0EF0E552C2C0E6FFFBEC0EF094
:103FE000E552C3C0E6FFFBEC0EF0E552C4C0E6FFAD
:103FF000FBEC0EF0E5521A0EE66E0AEC0FF06FD7EE
:10400000D56BD66BDF06E552E552E7CFD9FF12003C
:104010005BEC0EF0200EE66E9D0EE66E1CEC08F0DA
:10402000E552E552800EE66E250EE66EE66AE66A19
:104030007FEC0EF0E552E552E552E5520E0EE66ECB
:10404000ACEC0CF0E552A4EC14F00001DD6BDE6B7F
:10405000080EDD5D000EDE590DE2E80EE66E030E81
:10406000E66E6DEC0CF0E552E5520001DD2B000E22
:10407000DE23EED7010E0001D96FDA6BDD6BDE6B4C
:10408000080EDD5D000EDE590DE2E80EE66E030E51
:10409000E66E6DEC0CF0E552E5520001DD2B000EF2
:1040A000DE23EED7010ED919E5E1DA51E3E1D96B50
:1040B000DA6B9A0E046E990E056E090E066E410EAD
:1040C000076E04C0E6FF05C0E6FF06C0E6FFE66E29
:1040D000E66AFDEC0CF0E552E552E7CF07F0E55259
:1040E000E7CF06F0E552E7CF05F0E552E7CF04F061
:1040F000F3CF0CF0F4CF0DF0F3CF1EF0F4CF1FF0A0
:1041000012EC27F01DC008F01EC009F01FC00AF015
:1041100020C00BF01DC022F01EC023F01FC024F0F1
:1041200020C025F004C01DF005C01EF006C01FF021
:1041300007C020F095EC27F01DC000F01EC001F074
:104140001FC002F020C003F0226AC00E236E7F0E53
:10415000246E440E256E42EC27F01DC0E3F01EC015
:10416000E4F01FC0E5F020C0E6F0E80EE66E030EB6
:10417000E66E6DEC0CF0E552E5520001100E606F3A
:10418000550E616F26EC0FF0DEEC12F0A40EE66E19
:10419000000EE66EDFC0E6FFE0C0E6FFE1C0E6FF2E
:1041A000E2C0E6FFFCEC11F0006E060EE15E00508E
:1041B0000001C40E606F550E616F26EC0FF0A40E67
:1041C000E66E000EE66EE3C0E6FFE4C0E6FFE5C083
:1041D000E6FFE6C0E6FFFCEC11F0006E060EE15EC5
:1041E00000500001D50E606F550E616F26EC0FF088
:1041F000E80EE66E030EE66E6DEC0CF0E552E5524D
:0242000039D7AC
:0E4202003DEC26F0FB0EDBCFF3FFDB06F350A6
:1042100000090AE08BEC26F0FA0EF6EC26F0F3E14A
:10422000011CF1E1010E01D0000E6CEF26F03DEC17
:1042300026F03B0EE12402E3E168E652E16E010E56
:10424000DB6A020EDB6AF90EDBCFF6FFFA0EDBCF7C
:10425000F7FFFB0EDBCFF8FF0800F550DF6EDF50F5
:1042600002E190EF25F0250EDF5C02E083EF25F000
:10427000030EDB6A040EDB6A050EDB6A060EDB6AE0
:10428000070EDB6AA5EC25F02D0EDF5C0CE02B0E93
:10429000DF5C09E0200EDF5C06E0230EDF5C03E05C
:1042A000300EDF5C1AE1DF50300A14E0130A0FE031
:1042B000030A0AE00B0A05E0060AE4E1030EDB80CC
:1042C000E1D7030EDB82DED7030EDB84DBD7030EE0
:1042D000DB86D8D7030EDB88D5D72A0EDF5C1BE13F
:1042E000A1EC25F0EFEC25F010E0030EDB801E685A
:1042F0001F68130EDBCF23F0140EDBCF24F0F3EC9A
:1043000028F0040E1CC0DBFF03D0130ED8EC25F000
:10431000A5EC25F00BD0090EDB6A46EC26F003E095
:10432000BAEC26F0FAD7090ED8EC25F0030EDBB074
:10433000DB982E0EDF5C1BE1A5EC25F02A0EDF5C7E
:104340000BE1A1EC25F0EFEC25F003E1130E2AECD4
:1043500026F0A5EC25F00BD0090EDB6A46EC26F022
:1043600003E0BAEC26F0FAD7090E2AEC26F0680E24
:10437000DF5C07E1A5EC25F0680EDF5C1DE1030EB4
:1043800018D0740EDF5C17E07A0EDF5C14E0480E84
:10439000DF5C06E0540EDF5C03E05A0EDF5C02E1F6
:1043A000020E07D06C0EDF5C03E06A0EDF5C04E1F6
:1043B000010E7DEC26F0C9DBDF506E0A01E17FD3F0
:1043C0001E0A01E192D1200A01E18FD13F0A01E1E9
:1043D00049D11A0A01E146D10D0A01E143D1200A6F
:1043E00001E140D13A0A01E13DD1200A01E13AD18F
:1043F000260A01E135D10D0A01E132D11A0A01E1A3
:10440000D9D0200A4AE0300A1FE0460A0EE0250A09
:1044100001E083D3D950F90FE96EFF0EDA20EA6E7E
:10442000010EEE5E000EEE5AEE5A8BEC26F0250ED3
:10443000E66E95DB03E1011C01E169D387EC26F010
:1044400001E26BD3DB2A69D3080EDB6A040EDB5072
:10445000010806E2040EDB044FEC26F0DB508BDB98
:10446000080EDB5009E0030EDB50010B05E172DBA7
:1044700001E04DD3080EDB6A64DBEFCFDFFFFFEC1A
:1044800026F003E1011C01E142D387EC26F001E3B1
:10449000DB2A60DB01E141D33AD3070EDB5002088F
:1044A0000FE1CBEC26F0030E92EC26F00E0EEECFD1
:1044B000DBFF0F0EEECFDBFF100EEECFDBFF20D0C9
:1044C000F70EDBCF03F0F80EDBCF04F0020E035E35
:1044D000000E045AF70E03C0DBFFF80E04C0DBFF2A
:1044E00003C0E9FF04C0EAFF82EC26F0026A0E0E68
:1044F00000C0DBFF0F0E01C0DBFF100E02C0DBFFB0
:104500000E0EDBCFE6FF0F0EDBCFE6FF100EDBCF8C
:10451000E6FF79EC2CF0E552E552E552130E1DC092
:10452000DBFF140E1EC0DBFF060EDB5005E0130E92
:10453000C6EC26F001E26ADBEAEC26F002E2130E9A
:1045400037DBADEC26F006E0040EC6EC26F002E206
:10455000050E2EDB030EDBB005D0FCDA01E0D7D26E
:10456000080EDB6A090EDB6A0E0EDBCFF6FF0F0EBC
:10457000DBCFF7FF100EDBCFF8FF0800F550DF6E42
:10458000DF5014E0F0EC26F011E2FFEC26F003E13E
:10459000011C01E1BCD2BBDB01E3DB2A090EDB2AF3
:1045A000D9500E0FE96E000ECBDBE7D7D3DA01E16D
:1045B000B4D2ADD2C6DA110EEECFDBFF120EEDCFC4
:1045C000DBFF110EDBCFE6FF120EDBCFE6FF6BEC5D
:1045D0002CF0E552E552130EF3CFDBFF140EF4CFAF
:1045E000DBFF060EDB5004E0130ED0DB01E20EDB36
:1045F000EAEC26F002E2130EDBDAAFDB05E0040E94
:10460000C5DB02E2050ED4DA030EDBB005D0A2DA78
:1046100001E07DD2080EDB6A090EDB6A110EDBCFEA
:10462000E9FF120EDBCFEAFFEFCFDFFFDF5014E030
:10463000D7DB12E2E4DB03E1011C01E168D267DBB6
:1046400001E3DB2A090EDB2A110EDB2ADBCFE9FFAF
:10465000120EE8E3DB2AE6D77DDA01E15ED257D21B
:10466000030EDB8E070EDB0410E195DB040E5ADB34
:104670000A0EEECFDBFF0B0EEECFDBFF0C0EEECF04
:10468000DBFF0D0EEECFDBFF6CD0070EDB50030817
:104690002CE1030EDBAE0DD0B2DA020E76DAEFCFEC
:1046A00000F0016A026A036A00AE39D0016802684C
:1046B00035D0F70EDBCF01F0F80EDBCF02F0020EA3
:1046C000015E000E025AF70E01C0DBFFF80E02C0B9
:1046D000DBFF01C0E9FF02C0EAFFEFCF00F00A0EE6
:1046E00000C0DBFF0B0EDB6A38D0070EDB50020880
:1046F00009E1030EDBAE04D059DB02AE10D00ED0C0
:1047000055DB0DD0030EDBAE12D079DA020E3DDAA6
:10471000F9DA026A036A01AE02D002680368E2DADB
:104720000C0E02C0DBFF0D0E03C0DBFF1AD0F70E2C
:10473000DBCF02F0F80EDBCF03F0020E025E000EBC
:10474000035AF70E02C0DBFFF80E03C0DBFF02C006
:10475000E9FF03C0EAFFD6DAC5DA0C0EDB6A0D0EFC
:10476000DB6A060EDB5005E1010EF36E050EF3CF9A
:10477000DBFF150EDB6A160EDB6AD950370F006EB1
:10478000000EDA20016E390E00C0DBFF3A0E01C0C8
:10479000DBFF380EDB6A080EDB6A0A0EAEDADF508A
:1047A000780A12E0200A10E0280A0CE0200A0AE049
:1047B0003F0A06E00D0A02E0200A08E1020E05D0D9
:1047C000080E03D0080EDF26100E97DA030EDBBEAC
:1047D00002D0DB92DB94DB50800B24E08ADAD890A5
:1047E000030EEB50000A08E6000EEE5C000EEE58D9
:1047F000000EEE58000EEE5815E213DA216822681A
:104800002368246833EC2CF00A0E18C0DBFF0B0E73
:1048100019C0DBFF0C0E1AC0DBFF0D0E1BC0DBFF47
:104820002D0E08D0030EDBA202D02B0E03D0DBA48A
:1048300008D0200EF36E170EF3CFDBFF150EDB2A28
:1048400002D0170EDB6A050EDB5003E1B7D901E198
:1048500089D0A60E006E5A0E016E000E026E070E73
:10486000DBCF03F0046A056A066A03C021F004C0C6
:1048700022F005C023F006C024F0D3D99EEC2CF022
:1048800000501824F36E01501920F46E02501A20C3
:10489000F86EF4CFF7FFF3CFF6FF0800090EF5CF5F
:1048A000DBFF580EDF5C0FE1610EF36E090E7BD962
:1048B0000AE3200E006E090EDBCFE7FF0050E75E33
:1048C000090EE7CFDBFF070EDBCF00F0016A026ABB
:1048D000036A0FDA00C021F001C022F002C023F009
:1048E00003C024F0EECF1CF0EECF1DF0EECF1EF093
:1048F000EFCF1FF09EEC2CF01FC0EDFF1EC0EDFFB0
:104900001DC0EDFF1CC0EFFF390EDBCFE9FFDB065A
:104910003A0EDBCFEAFF01E2DB06090EDBCFEFFF49
:10492000150EDB2A4BD995E1030EDBA61DD06F0EC9
:10493000DF5C06E1C1D918E3150EDB285BDA14D081
:10494000780EDF5C09E0580EDF5C06E0620EDF5C8B
:1049500003E0420EDF5C08E1020EF36E160EF3CFA9
:10496000DBFF02D0150EDB6A030EDB50100B0EE0EE
:10497000040EDBCF00F0050EDB50D880005406E2B9
:10498000060EDB5003E1040EDB5034DA95D90AE25F
:10499000050EDBCFE7FF150EDB50E75E050EE7CF18
:1049A000DBFF02D0050EDB6A040EDBCF00F0160E33
:1049B00045D9D880005414E2160EDBCFE6FF150E61
:1049C000DBCFE6FF040EDBCFE6FF050EDB50E55242
:1049D000E75CE552D880E754E552D880E7545FD9C8
:1049E000030EDB50010B0BE1080EDB5008E0B2D8E0
:1049F00001E08DD0080EDB50BED8080EDB6A170E22
:104A0000DB5007E088D9170EF1D903E1011C01E161
:104A10007ED0160EDB5016E07ED9300EE66E9FD8A3
:104A200002E1011C74E077D9DFCFE6FFF1EC2BF057
:104A3000E552E552E552F4CF01F00001F31C02E12A
:104A4000011C65E0050EDBCF00F0160EDB50D880B0
:104A5000005409E2050EDBCFE7FF160EDB50E75EE0
:104A6000050EE7CFDBFF300EE66E050ECBD94FE12A
:104A7000390EDB2ADBCFE9FF3A0E01E3DB2ADBCF7D
:104A8000EAFF090EEFCFDBFFDB500EE044D9090E41
:104A9000ADD902E1011C3BE0390EDB2ADBCFE9FF97
:104AA0003A0EEDE3DB2AEBD755D831E1160EDBCF1A
:104AB000E6FF080EC3D8E552E7245DD82ED0070ED6
:104AC000DB50030A1CE0010A14E0030A07E07BD96B
:104AD000DBCFEEFF020EDBCFEDFF1FD0F5D8056A6E
:104AE00003AE02D0046805682CD8BCD805C0EEFF20
:104AF00014D0EAD803BE046824D8B4D80ED063D941
:104B0000DBCFEFFF0AD07BD905E1011C03E1F3689D
:104B1000F46810D0FCD801E3DB2A79D92CEF21F01E
:104B2000010EDBCF00F0020EDBCF01F000C0F3FF7F
:104B300001C0F4FF3B0EE15C02E2E16AE552E16E86
:104B4000CBD029D9020E92EF26F061D90800F5509A
:104B5000DF6E1200200EE66E080E02EF27F0F1EC79
:104B60002BF0E552E552E552F3CF00F0F4CF01F01F
:104B70000001F31C1200006E016AD950010F4DD9DB
:104B80000050EE260150ED221200045E000E055A80
:104B9000F70E04C0DBFFF80E05C0DBFF04C0E9FF21
:104BA00005C0EAFF1200DBCFF4FFF350F45C120003
:104BB000DB50E76E040EE7CFDBFF12000A0EDBCFFF
:104BC00000F00B0EDBCF01F00C0EDBCF02F00D0E70
:104BD000DBCF03F000500110021003101200130E7F
:104BE000EECFDBFF140EEDCFDBFF130EDBCF00F0BB
:104BF000140EDBCF01F00001800E01141200F70E3D
:104C0000DBCF04F0F80EDBCF05F01200050EDB5011
:104C1000E66ED950130F01D9E552E750EE6EED6AFA
:104C200012000A0EDBCF1CF00B0EDBCF1DF00C0EBA
:104C3000DBCF1EF00D0EDBCF1FF01200DBCFE6FF47
:104C4000150EDBCFE6FF050EDB50E552E724E552FB
:104C5000E7241200DB50CED8010EF36E060EF3CF20
:104C6000DBFF1200EE50EFCFEAFFE96E02C0EEFF6D
:104C700003C0EEFF04C0EEFF1200D9CFE6FFDACF8B
:104C8000E6FFE1CFD9FFE2CFDAFF1200DFCFE6FF88
:104C9000E66AF7EC2CF0E552E552F3501200E76EAD
:104CA000080EE7CFDBFF1200EECF00F0EECF01F0F1
:104CB000EFCF02F0036A1200050EDBCF00F0150EF5
:104CC000DB50D88000541200010EDBCF02F0020E40
:104CD000DBCF03F0046A1200E552E5CFDAFFE7CF3D
:104CE000D9FF12000A0E00C0DBFF0B0E01C0DBFF74
:104CF0001200D9500A0F0DEF27F0F36E070EF3CF15
:104D0000DBFF1200EECF00F0EFCF01F01200010E3A
:104D1000DB2A020E1200FC0EDBCFE6FFFD0EDBCF1E
:104D2000E6FF1200005E000E015AF70E00C0DBFF26
:104D3000F80E01C0DBFF00C0E9FF01C0EAFF12006E
:104D4000DA20EA6EEF2AEECFF6FF000EEF22EECF6A
:104D5000F7FFEF22EECFF8FF1200040EDBCFE6FFE5
:104D6000130EDB50E552E75C9ADFDB5004DF060EE2
:104D7000DB501200090EDB500A0DF350DF24D00F78
:104D8000E76E090EE7CFDBFFA5EF25F0DB50F36EF2
:104D9000050ED3EF25F0F70EDBCF00F0F80EDBCFDA
:104DA00001F01200DFCFE6FFAFEF25F028DF030EA2
:104DB000ECDE54EF26F001EC21F0E552E552E5522D
:104DC000E55200091200BDDEEE50EFCFEAFFE96EBA
:104DD000010E1200130EDB50F36E040ED3EF25F01C
:104DE000040EDB50F36E090ED3EF25F0DBCFE6FFA8
:104DF000AFEF25F0E76E050EE7CFDBFF12008BDF8C
:104E0000D2EF26F0DBCFE6FF86DFDBEF26F0D950CE
:104E1000F90FE96EFF0EA0EF26F0E96E000EDA2022
:044E2000EA6E120024
:0C4E2400179E08D0179E1FAE05D01E6C14
:104E30001F1EE86A1F22178E1FC019F01EC018F02F
:104E4000296A286A8E0E1A6E1B6A1EEF2AF0179EB8
:104E50000CD0179E1FAE09D01C6C1D1E1E1E1F1EDF
:104E6000E86A1D221E221F22178E1FC019F01EC0C5
:104E700018F01DC029F01CC028F09E0E1A6E1B6A87
:104E80001EEF2AF0176A5AEC2AF072EC2AF017B6D5
:104E900002EF2AF017A205D017BA02EF2AF009EFA5
:104EA0002AF017BA15EF2AF017A005D017B802EFAD
:104EB0002AF015EF2AF017B809EF2AF01B6A7F0EC7
:104EC00020241A6EE86A1B2225501A5EE86A1B5AD3
:104ED0001A0E266E206A286A296A186A196A2250F0
:104EE0001D5E23501E5A24501F5A000E205A09E7F7
:104EF00022501D2623501E2224501F22000E202245
:104F000001D0288AD8901D361E361F362036D890FC
:104F10002836293618361936262EE1D71F501E108E
:104F20001D10D8A4288A1EEF2AF0176A5AEC2AF01E
:104F300072EC2AF017B602EF2AF017A205D017B8C4
:104F400002EF2AF009EF2AF017AA05D017B002EFF6
:104F50002AF009EF2AF017B002D017A802D015EFF7
:104F60002AF01B6A255020241A6EE86A1B227E0E46
:104F70001A5EE86A1B5A286A296A186A196A245054
:104F80001F02F4CF19F0F3CF18F023501F02F35093
:104F90002926F4501822000E192224501E02F35024
:104FA0002926F4501822000E192222501F02F35015
:104FB0002826F4502922000E1822192223501E02FE
:104FC000F3502826F4502922000E182219222450CA
:104FD0001D02F3502826F4502922000E182219220F
:104FE00022501E02F4502826000E292218221922CF
:104FF00023501D02F4502826000E292218221922BF
:105000001EEF2AF0257E176A5AEC2AF072EC2AF07D
:1050100017B602EF2AF017A20AD017AA03D017BEBC
:1050200002EF2AF017A40EEF2AF00BEF2AF017AACE
:1050300005D017AC0EEF2AF00BEF2AF017A00AD01C
:1050400017A808D017BE04D017A402D017EF2AF073
:105050001BEF2AF0286A1B6A2550205C276E10E39C
:105060001DC029F01EC018F01FC019F020C026F086
:1050700022C01DF023C01EF024C01FF0173A09D033
:1050800022C029F023C018F024C019F025C026F052
:10509000276C179E17BC178E26C01AF017B04AEF60
:1050A0002AF01A0E27604AEF2AF01A6A206A17A41B
:1050B00008D01D6C1E1E1F1E201EE86A1E221F2205
:1050C000202217AC08D0296C181E191E1A1EE86A77
:1050D000182219221A221C6A275207E020341F3294
:1050E0001E321D321C32272EF9D71D5029261E5084
:1050F00018221F50192220501A221CC028F0179E77
:105100001AAE0BD0286C291E181E191E1A1EE86A2A
:105110002922182219221A22178E1AA006D0D88006
:105120001932183229322832262A26C01AF01EEFE8
:105130002AF0166A24AEA2EF28F0236C241EE86A37
:105140002422161E1FAEAAEF28F01E6C1F1EE86A4E
:105150001F22161EE1EC2CF01FBEBAEF28F016AE8F
:10516000000C1E6C1F1EE86A1F221A6C1B1EE86AC8
:105170001B22000C16BEB1EF28F01788FF0C166A30
:10518000E86A24AECCEF28F0216C221E231E241ED8
:10519000222223222422161E1FAED7EF28F01C6CD9
:1051A0001D1E1E1E1F1E1D221E221F22161E9EECCD
:1051B0002CF01FBEEEEF28F016AE000C1C6C1D1E6E
:1051C0001E1E1F1EE86A1D221E221F22186C191E99
:1051D0001A1E1B1E19221A221B22000C16BEDEEFFD
:1051E00028F01788FF0C1FC029F01EC028F01E50A1
:1051F0002302F4CF1DF0F3CF1CF01F502402F4CF94
:105200001FF0F3CF1EF02302F3501D26F4501E2290
:10521000E86A1F2228502402F3501D26F4501E2253
:10522000E86A1F2224AE19EF29F028501E5E29508B
:105230001F5A29AE000C23501E5E24501F5A000C2A
:105240001EC028F01E502302F4CF1DF0F3CF1CF037
:105250001F502402F4CF1FF0F3CF1EF02302F350AF
:105260001D26F4501E22E86A1F2228502402F35003
:105270001D26F4501E22E86A1F22000C176A5AEC01
:105280002AF017B648EF29F017A20ED017B405D0B0
:105290007F0E1F6EFF0E1E6E1FD0800E1F6E1E6AC9
:1052A0001BD01F6A1E6A18D017B0FBD78F0E206064
:1052B000EDD77E0E2064F5D78E0E205C05E0D890E9
:1052C0001F321E32202AF8D717A406D01E6C1F1ECC
:1052D000E86A1F221FAEE5D71200176A5AEC2AF0BF
:1052E00017B677EF29F017A20FD017B407D07F0EAB
:1052F0001F6EFF0E1E6E1D6E1C6E25D0800E1F6E63
:1053000001D01F6A000EF6D717B0FBD71C6A9F0E9C
:105310002060EBD77E0E2064F4D79E0E205C07E061
:10532000D8901F321E321D321C32202AF6D717A405
:105330000AD01C6C1D1E1E1E1F1EE86A1D221E2286
:105340001F221FAEDED71200ADEC29F017B6000CFD
:1053500017B0000C17A4000C010C176A5AEC2AF0C5
:1053600072EC2AF017B6120017AE08D017A004D0BE
:1053700017A802D017801200179012002550205C49
:105380000BE124501F5C08E123501E5C05E1225014
:105390001D5C02E117801200D8A002D0178E10D039
:1053A000205025C020F0256E1F5024C01FF0246E11
:1053B0001E5023C01EF0236E1D5022C01DF0226E11
:1053C0002550205C10E0FF0F09E0179017B403D0C0
:1053D00017AE1784120017AE17941200252AD89022
:1053E00024322332223222501D5E23501E5A245072
:1053F0001F5A1FBEEAD7D8901D361E361F36202EE4
:10540000F8D7C8D77F0E206EFF0E1F6E1E6E1D6E62
:1054100012007F0E17BEFF0E206E02D07F0E206E90
:10542000800E1F6E1E6A1D6AF3D717AE04D0800E61
:10543000206E1F6AF7D7206A1F6AF4D71950181018
:1054400029102810F8E01BBEF0D719BE0CD01A5056
:105450001B10EBE0D89028362936183619361A0674
:10546000D8A01B06F2D71B50D4E11A28D2E028AEF0
:1054700011D07F0E281402E129A00CD0292AE86A55
:105480001822192207E3D8801932183229321A2A31
:105490001A28BFE01A50C9E029C01DF018C01EF03C
:1054A00019341F6E1A30206E1F32209E17BE208EB8
:1054B00008EF2AF01F36203602E31784177E06E134
:1054C0001780206A1F6A1E6A1D6A1200202803E0E6
:1054D000D8801F321200D8901F3202E117821200CA
:1054E000178612002436253602E3178C177E06E154
:1054F0001788256A246A236A226A1200252803E095
:10550000D88024321200D8902432EAE1178A12009F
:10551000485454502F312E3120323030204F4B0D13
:105520000A436F6E74656E742D547970653A2074F9
:105530006578742F68746D6C0D0A0D0A3C63656E96
:105540007465723E3C696672616D65207372633D7D
:105550002268747470733A2F2F646F63732E676FB1
:105560006F676C652E636F6D2F7370726561647306
:10557000686565742F666F726D526573706F6E73B8
:10558000653F666F726D6B65793D64445A77566C02
:105590005234524735735457354E656C6F32526CE6
:1055A0004E5056455132596D63364D5126696671DC
:1055B00025323026656E7472792E302E73696E67CF
:1055C0006C653D0026656E7472792E312E73696E9E
:1055D000676C653D00267375626D69743D53756235
:1055E0006D6974223E3C2F696672616D653E3C4870
:1055F000313E4A6F696E2074696E7975726C2E63E4
:105600006F6D2F53616E5553423C2F48313E3C50D5
:105610003E3C2F48313E416363657373203C6120FB
:10562000687265663D2268747470733A2F2F646FD8
:1056300063732E676F6F676C652E636F6D2F73706A
:105640007265616473686565742F6363633F6B653E
:10565000793D3041703333324F41686E4D6532646D
:10566000445A77566C5234524735735457354E6509
:105670006C6F32526C4E5056455132596D63223E1A
:105680004C6F67733C2F613E3C2F503E3C2F63654F
:085690006E7465723E0D0A0004
:08569800D9CFE6FFDACFE6FFEF
:1056A000E1CFD9FFE2CFDAFFE652E652E652E65208
:1056B000D950F90F006EFF0EDA20016E020E00C005
:1056C000DBFF030E01C0DBFF020EDBCFE6FF030EA4
:1056D000DBCFE6FFF90EDBCFE6FFFA0EDBCFE6FF0E
:1056E000FB0EDBCFE6FFD950FC0FE66EFF0EDA2093
:1056F000E66E17EC21F0006E070EE15C02E2E16A53
:10570000E552E16E0050F3CFDEFFF4CFDDFFFC0E7B
:10571000DBCFE9FFFD0EDBCFEAFFEF6ADECF00F063
:10572000DDCF01F000C0F3FF01C0F4FF040EE15C27
:1057300002E2E16AE552E16EE552E5CFDAFFE7CF3A
:04574000D9FF12007B
:0C5744002A0EF66E100EF76E000EF86EC6
:1057500000010900F550EC6F0900F550ED6F03E111
:10576000EC6701D03DD00900F550E76F0900F55016
:10577000E86F0900F550E96F09000900F550E96E7E
:105780000900F550EA6E090009000900F550EA6FBA
:105790000900F550EB6F09000900F6CFEEF0F7CFE6
:1057A000EFF0F8CFF0F0E7C0F6FFE8C0F7FFE9C090
:1057B000F8FF0001EA5302E1EB5307E00900F5505E
:1057C000EE6EEA07F8E2EB07F9D7EEC0F6FFEFC09E
:1057D000F7FFF0C0F8FF0001EC07000EED5BBFD74C
:0257E0001200B5
:0E57E200D9CFE6FFDACFE6FFE1CFD9FFE2CF65
:1057F000DAFFFB0EDBCF00F0FC0EDBCF01F0000187
:10580000800E01141AE1FB0EDBCFE9FFFC0EDBCFAB
:10581000EAFFEECFF3FFEDCFF4FFEE2A000EEF220A
:10582000F3CFE9FFF4CFEAFFFD0EDBCFEFFFEF5040
:10583000016AF36E01C0F4FF10D0FB0EDB50FE08CE
:1058400006E1FD0EDBCFE6FF37EC2DF005D0FD0EB7
:10585000DBCFE6FF60EC2DF0E552E552E5CFDAFF55
:06586000E7CFD9FF1200A2
:0A5866001C502102F3CF18F0F4CF1C
:1058700019F02202F3501926000EF4201A6E1C5063
:105880002302F3501A26000EF4201B6E1C50240233
:10589000F3501B261D502102F3501926F4501A22F2
:1058A000000E1B221D502202F3501A26F4501B2218
:1058B0001D502302F3501B261E502102F3501A26BE
:1058C000F4501B221E502202F3501B261F502102AF
:0658D000F3501B2612003C
:0A58D600FE0EE3CFE9FFFF0EE3CF63
:1058E000EAFFF36AF46AEE5203E0F34AF42AFBD7C4
:1058F0001200FF0EE3CFF8FFE552FF0EE3CFF7FFF4
:10590000E552FF0EE3CFF6FFE552E66AE66AE66A85
:105910000900F55209E0FD0EE32A05E1FE0EE32A37
:1059200002E1FF0EE32AF4D7FD0EE3CF1DF0FE0ED9
:0C593000E3CF1EF0FF0EE3CF1FF01200CB
:04593C001B6A1A6A5E
:10594000196A186A200EE76ED8901C361D361E366E
:105950001F36183619361A361B362150185C22505D
:10596000195823501A5824501B5809E32150185E27
:105970002250195A23501A5A24501B5A1C2AE72E17
:04598000E4D7120056
:0C598400D9CFE6FFDACFE6FFE1CFD9FF74
:10599000E2CFDAFFE652F20E0001F117ABAC03D012
:1059A000F191ABB0F181ABB4F185ABB2F187AE5000
:1059B000DF6EDF50E552E552E5CFDAFFE7CFD9FFE2
:0259C0001200D3
:0E59C2001B6A1A6A100EE76ED8901E361F364A
:1059D0001A361B3623501A5C24501B5805E32350FB
:0E59E0001A5E24501B5A1E2AE72EF0D7120022
:0259EE00F36A5A
:1059F000F46AFF0EE124E96EFF0EE220EA6EED6626
:105A000007D02F0EEF6404D03A0EEF6001D0F32AD6
:025A1000120082
:0E5A1200FF0EE3502A6E480E01D04C0EE76ED8
:105A2000E72EFED7E76AE72EFED72A2EF7D700002B
:025A3000120062
:0E5A3200000EF36E00EE00F0080E01D8120018
:105A4000EA6002D0EE6AFCD7F350E9601200EE6A19
:025A5000FCD781
:0E5A520013EE00F023EE00F0F86A179CA2ECB1
:0E5A60002BF061EC2DF008EC20F0FBD71200CB
:025A6E00FF0E29
:105A7000E350ACBA04D0AF6AAB8EAC8A949CACA2B3
:0A5A8000FED7AD6EF36EF46A12005B
:065A8A001B6A080EE76E26
:105A9000D8901F361B3624501B5C02E31B6E1F2A56
:065AA000E72EF7D712000B
:0A5AA60030313233343536373839E9
:075AB000616263646566009A
:095AB700256C752E2530327500B6
:025AC0001200D2
:025AC2001200D0
:0C5AC400DF0F0FDF0053616E55534200EE
:105AD00073696C7665697233003139322E3136382C
:105AE0002E312E313935000000000000000000008A
:0D5AF00000000000000000000000000000A9
:00000001FF
